:020000040800F2
:10000000FCFF0020A9190000A1190000A11900009F
:10001000A1190000A1190000A1190000A1190000F8
:10002000A1190000A1190000A1190000A1190000E8
:10003000A1190000A1190000A1190000A1190000D8
:10004000A1190000A1190000A1190000A1190000C8
:10005000A1190000A1190000A1190000A1190000B8
:10006000A1190000A1190000A1190000A1190000A8
:10007000A1190000A1190000A1190000A119000098
:10008000A1190000A1190000A1190000A119000088
:10009000A1190000A1190000A1190000A119000078
:1000A000A1190000A1190000A1190000A119000068
:1000B000A1190000A1190000A1190000A119000058
:1000C000A1190000A1190000A1190000A119000048
:1000D000A1190000A1190000A1190000A119000038
:1000E000A1190000A1190000A1190000A119000028
:1000F000A1190000A1190000A1190000A119000018
:10010000A1190000A1190000A1190000A119000007
:10011000A1190000A1190000A1190000A1190000F7
:10012000A1190000A1190000A1190000A1190000E7
:10013000A1190000A1190000A1190000A1190000D7
:10014000A1190000A1190000A1190000A1190000C7
:1001500081B00248006801B0704700BF7000002005
:1001600083B0CDF800E000F0FF031A09104603F059
:100170000F02134614E0194A02921FE0184A029235
:100180001CE0184A029219E0174A029216E0174A38
:10019000029213E0164A029210E0164A02920DE013
:1001A0000028E8D00128E9D00228EAD00328EBD0C3
:1001B0000428ECD00528EDD00628EED0012212B29A
:1001C0009A40ADF8042002980A46BDF8041000F0E9
:1001D000ADF8DDF800E003B0704700BF0008014053
:1001E000000C0140001001400014014000180140C3
:1001F000001C01400020014081B0194900EA0101C2
:10020000084600220EE0042022E0082020E0102012
:100210001EE020201CE040201AE0802018E040F280
:10022000001015E00F498842EDD00F498842ECD00C
:100230000E498842EBD00E498842EAD00D498842E7
:10024000E9D00D498842E8D00C498842E7D01046F1
:100250000B49096841EA000209490A6001B0704788
:1002600000FCFFFF00080140000C014000100140AD
:100270000014014000180140001C01400020014012
:100280001810024082B0CDF800E0034619460191F3
:10029000FFF75EFF40F2E83100FB01F201990A60CE
:1002A0001F490978C1F30311C8B21E49091808781B
:1002B000C0B21A1D1968C140116019490988C1F3FB
:1002C000022188B2174909180878C0B203F208025F
:1002D000191D0968C140116011490988C1F3C22183
:1002E00088B2104909180878C0B203F20C02191D2F
:1002F0000968C14011600A490988C1F3813188B297
:10030000094909180978C8B203F2100203F20C0176
:100310000968B1FBF0F11160DDF800E002B0704750
:10032000041002407B1D0000740B000081B0CDF86A
:1003300000E08CB21546774B00EA03031E461846D0
:10034000FFF75AFFB4F1FF0F0CD1734B9D4203D15D
:100350004FF033333360D9E0422D03D14FF04433B3
:100360003360D3E04FF6FF739C4214D16A4B9D4239
:1003700007D14FF033333360341D4FF033332360F4
:10038000C4E0422D07D14FF044333360341D4FF0A9
:1003900044332360BAE00021002005F001030BB1D3
:1003A00000211DE005F0020333B105F4C0730BB169
:1003B000082100E0042113E005F0040333B105F047
:1003C00020030BB1042100E0002109E005F008033F
:1003D00033B105F020030BB10C2100E00821FFE749
:1003E0004E4B05EA03030BB1032009E005F400734B
:1003F0000BB1022004E005F480630BB10120FFE79C
:1004000005F00C030BB10143FFE704F0FF039BB2BF
:10041000002B3BD0376800201FFA84F832462E4666
:1004200008282CD24FF0010303FA00F408EA040371
:10043000A34222D185004FF00F03AB40DB4307EA14
:10044000030401FA05F344EA03031D4606F481732D
:10045000B3F5817F05D102F214044FF0010383400C
:10046000236006F08203822B05D102F210044FF0C4
:100470000103834023602F46FFE7401CD0E717604D
:100480001FFA88F00F463146164602E00F4629460D
:10049000A0B2B0F1FF0F39D9331DD3F8008000228C
:1004A000082A30D202F208044FF0010303FA04F4E0
:1004B00000EA0403A34224D195004FF00F03AB40A0
:1004C000DB4308EA030807FA05F348EA030801F4E6
:1004D0008173B3F5817F07D106F2140502F2080497
:1004E0004FF00103A3402B6001F08203822B07D160
:1004F00006F2100502F208044FF00103A3402B603E
:10050000FFE7521CCCE7331DC3F80080DDF800E0A4
:1005100001B0704700FCFFFF14000800000808004D
:1005200081B000F20C02116000F208021368C3F3FC
:10053000000202B9F8E700F20C02126890B201B0B2
:100540007047FFFF89B0CDF800E0834698B28C4633
:10055000BDF824100A9E04ACADF80410ADF80800F4
:100560002046FFF78FFEBDF80800BDF80410644C6C
:10057000A34512D101256DB2624C2560624D634CDA
:100580002560634D634C2560634D644C2560644D6C
:10059000644C2560079C039456E0634CA34512D13C
:1005A00001256DB2614C2560614D584C2560614D4F
:1005B000584C2560604D594C2560604D594C256064
:1005C000069C039440E05E4CA34512D101256DB218
:1005D0005C4C25605C4D4D4C25605C4D4D4C256060
:1005E0005B4D4E4C25605B4D4E4C2560069C039444
:1005F0002AE0594CA34512D101256DB2574C256014
:10060000574D424C2560574D424C2560564D434C4A
:100610002560564D434C2560069C039414E0544CD1
:10062000A34511D101256DB2524C2560524D374C76
:100630002560524D374C2560514D384C2560514D49
:10064000384C2560069C0394ADF80410ADF8080002
:10065000304600F0CBF8BDF80800BDF804100BF1EF
:10066000100500242C600BF110052C680C432C6045
:100670000BF10C0500242C6018B140F4806080B2AE
:10068000FFE70BF10C052C6804432C600BF10C0602
:100690000125346865F34D3434600BF10C060125F7
:1006A000346865F3C30434600BF10C06012534682B
:1006B00065F3820434600BF1140500242C60039D63
:1006C000192465434FEA8C04B5FBF4F76424B7FBA7
:1006D000F4F42601350964246C433C1B240104F224
:1006E00032056424B5FBF4F404F00F0446EA040474
:1006F0000BF10805A4B22C60DDF800E009B07047EA
:100700000038014038034242F50900007C00002017
:10071000FFFFFFFF80000020FFFFFFFF840000209D
:10072000FFFFFFFF8800002000440040C403424256
:1007300069090000FFFFFFFFFFFFFFFFFFFFFFFF53
:1007400000480040C80342424D090000FFFFFFFF80
:10075000FFFFFFFFFFFFFFFF004C0040CC034242C2
:10076000A1090000FFFFFFFFFFFFFFFFFFFFFFFFEB
:1007700000500040D003424285090000FFFFFFFF08
:10078000FFFFFFFFFFFFFFFF81B000230360CB00EF
:100790009BB242EA030304689BB244EA030303608A
:1007A000051D13141C462B6864F382032B6000F2B2
:1007B0001C0500242B6864F3CB232B600124036801
:1007C00064F38613036001B07047FFFF81B0ADF89A
:1007D00000100146BDF800000B68C3F3C01202B957
:1007E000FAE70A1D106001B07047FFFF81B0CDF835
:1007F00000E0012252B23E490A6000F268010B6833
:100800006FF0006103EA0102144603F00061C90EB3
:100810000B4602F00041B1F1004F02D135490A68A0
:1008200001E035490A6804F47021090C0E464FF6C0
:10083000FF7104EA01010D4604F44011B1F5401FB7
:100840000DD16FF0706102EA01010E462A490A6873
:100850006FF070610A4028490A60324616E004F4DD
:100860008011B1F5801F09D14FF00301B140C94398
:1008700002EA010141F070610A4607E0610D0901D9
:1008800005FA01F1C9430A4042F070622BB1610DD3
:10089000090105FA01F10A43FFE704F00041B1F153
:1008A000004F02D113490A6001E013490A6040F287
:1008B000000A81464FEA8A0109EB01010968B1F19A
:1008C000FF3F10D009F134014FEA8A03C9180968C3
:1008D0000A4609EB0301096808461146FFF740FC88
:1008E0000AF1010AE6E7DDF800E001B0704700BF59
:1008F000000342421C0001400400014081B0CDF8D9
:1009000000E0019D2C4610B408B493B28AB20146AF
:100910000348FFF717FE02B0DDF800E001B07047B2
:100920000038014081B0CDF800E0019D2C4610B4A4
:1009300008B493B28AB201460348FFF703FE02B03F
:10094000DDF800E001B070470044004081B0CDF810
:1009500000E081B20348FFF739FFDDF800E001B0A5
:10096000704700BF0048004081B0CDF800E081B280
:100970000348FFF72BFFDDF800E001B0704700BF30
:100980000044004081B0CDF800E081B20348FFF799
:100990001DFFDDF800E001B0704700BF00500040CF
:1009A00081B0CDF800E081B20348FFF70FFFDDF81A
:1009B00000E001B0704700BF004C004081B0CDF8AE
:1009C00000E081B20348FFF7ABFDDDF800E001B0C5
:1009D000704700BF0038004081B0CDF800E081B220
:1009E0000348FFF79DFDDDF800E001B0704700BF50
:1009F0000030014081B0CDF800E081B20348FFF73C
:100A0000E5FEDDF800E001B0704700BF00380140AE
:100A100081B0CDF800E081B20348FFF781FDDDF839
:100A200000E001B0704700BF003C004081B0CDF84D
:100A300000E0019D2C4610B408B493B28AB201467E
:100A40000348FFF77FFD02B0DDF800E001B070471A
:100A50000048004081B0CDF800E0044A89B2FFF7B9
:100A600065FCDDF800E001B0704700BF140008002D
:100A700083B0CDF800E08DF8040002910B4C0C4BD4
:100A80001C600C4C0C4B1C60012464B20B4B1C60B2
:100A90001046FFF7ABFE029A9DF804100848FFF7D6
:100AA00073FEDDF800E003B0704700BFDD0A000010
:100AB00074000020110A000078000020BC034242AC
:100AC000003C004081B0CDF800E04FF0420289B216
:100AD000FFF72CFCDDF800E001B0704781B0CDF8E5
:100AE00000E081B20348FFF71BFDDDF800E001B034
:100AF000704700BF003C004081B0CDF800E081B2FB
:100B00000348FFF70DFDDDF800E001B0704700BFBE
:100B10000030014081B006B54FEA40024FEA126250
:100B20007F3A44BF4FF0000011E0D2F11F0209D913
:100B30004FEA002141F00041D14000284CBF48421B
:100B4000084604E000284FF0004058BF401EBDE8B2
:100B5000064001B07047FFFF81B0CDF800E081B2E0
:100B60000348FFF7DDFCDDF800E001B0704700BF8F
:100B7000003800400204060881B042F6DF67C0F288
:100B800000077F1EFDD100BF00BF00BF00BF00BF38
:100B900001B0704781B00249086001B0704700BFE2
:100BA000B081224281B00249086001B0704700BFA5
:100BB000B081224281B00249086001B0704700BF95
:100BC000B001224281B00249086001B0704700BF05
:100BD0009C81214281B00249086001B0704700BF8A
:100BE0009401214281B00249086001B0704700BF02
:100BF000A081224281B00249086001B0704700BF65
:100C00009881214281B00249086001B0704700BF5D
:100C1000A801224281B00249086001B0704700BFBC
:100C2000AC01224281B00249086001B0704700BFA8
:100C30008C01224281B00249086001B0704700BFB8
:100C4000B881224281B00A4681B200208DB211469D
:100C5000052805D20B1820221A70401CC0B2F7E7F5
:100C60000B1800221A70401EC0B20C180A23B5FBE4
:100C7000F3F203FB125292B2303222700A22B5FB19
:100C8000F2F292B295B202B902E0401EC0B2ECE7B5
:100C900001B0704781B00249086001B0704700BFE1
:100CA0009C81214283B0CDF800E0ADF8081001909E
:100CB000FFF762FFBDF80830BDF80820521EADF8FE
:100CC00008204BB10020074C2468A047019A1070FF
:100CD000019A521C0192EDE7FFF74EFFDDF800E0AC
:100CE00003B070476800002081B0026803490A60C1
:100CF000011D0A6802490A6001B070476C000020BB
:100D00006800002081B000F208010A6801490A6009
:100D100001B070476400002083B0CDF800E0ADF86A
:100D200008100190FFF728FFBDF80830BDF8082033
:100D3000521EADF8082053B1019A1278D4B2A0B275
:100D4000064C2468A047019A521C0192ECE7FFF779
:100D500013FFDDF800E003B0704700BF6C00002017
:100D600081B00249086001B0704700BF98812142FC
:100D700081B0FAB590EA02064CBF4FF000464FF042
:100D800000064FEA00214FEA40031B0E12BF41F05C
:100D900000414FF000002CE0FF2B26D04FEA022448
:100DA0004FEA42052D0E12BF44F000444FF0000000
:100DB0001FE0FF2D19D05B19A1FB0454002C5CBF70
:100DC00064005B1E803424BF5B1C64087E3BDCBF78
:100DD0004FF000000DE0FF2B07D24FEA142030F453
:100DE000000040EAC350304303E0FF27FF0546EA16
:100DF0000700BDE8FA4001B07047FFFF81B0CDF8B1
:100E000000E002B5002802D5FFF784FE13E04FEAA8
:100E100040014FEA11617F393CBF4FF000000AE00A
:100E2000D1F11F0105D34FEA002040F00040C84037
:100E300001E00020401EBDE80240DDF800E001B006
:100E40007047FFFF81B0002808BF0FE002B54FF0E8
:100E50009E0202D4521E4000FCD580302CBF521C92
:100E60004000400A40EAC250BDE8024001B070476D
:100E700081B00249086001B0704700BF94812242EE
:100E800081B00249086001B0704700BF98812242DA
:100E900081B0CDF800E00178CCB2A0B2034C246858
:100EA000A0470020DDF800E001B07047600000209E
:100EB00081B0CDF800E0A9E0012905D140F2100190
:100EC0006548FFF7FFFD04E040F210016248FFF7BC
:100ED000C1FDBBE0012905D140F204015F48FFF7E5
:100EE000F1FD04E040F204015C48FFF7B3FDADE022
:100EF000012905D142F200015948FFF7E3FD04E062
:100F000042F200015648FFF7A5FD9FE0012905D1F7
:100F100040F200415148FFF7D5FD04E040F20041A6
:100F20004E48FFF797FD91E0012905D140F60001F9
:100F30004A48FFF7C7FD04E040F600014748FFF7C5
:100F400089FD83E0012905D141F200014348FFF703
:100F5000B9FD04E041F200014048FFF77BFD75E078
:100F6000012905D140F201013B48FFF7ABFD04E048
:100F700040F201013848FFF76DFD67E0012905D116
:100F800040F200413648FFF79DFD04E040F2004189
:100F90003348FFF75FFD59E0012905D140F20021F8
:100FA0002F48FFF78FFD04E040F200212C48FFF7A7
:100FB00051FD4BE0012905D140F200112848FFF70F
:100FC00081FD04E040F200112548FFF743FD3DE0BC
:100FD000012905D140F240012248FFF773FD04E0EA
:100FE00040F240011F48FFF735FD2FE0012905D1F0
:100FF00040F280011B48FFF765FD04E040F28001EC
:101000001848FFF727FD21E0012020E000283FF4E9
:1010100053AF01283FF45EAF02283FF469AF0328C5
:101020003FF474AF04283FF47FAF05283FF48AAF44
:1010300006283FF495AF0728A0D00828ACD009288F
:10104000B8D00A28C4D00B28D0D0DDE70020DDF8C6
:1010500000E001B0704700BF0008014000100140EF
:1010600000140140000C014081B0CDF800E0011DEA
:101070000A680168C8B21146034AFFF7F9FC00206C
:10108000DDF800E001B07047541C000081B0CDF8DD
:1010900000E0011D0A680168C8B21146034AFFF763
:1010A000E7FC0020DDF800E001B07047541C0000B0
:1010B00081B0CDF800E0094902B440F2000340F2EB
:1010C000000240F20001FFF72DFC01B0044A05497F
:1010D0000A600020DDF800E001B07047E81B000066
:1010E000690900006000002081B0CDF800E00949E6
:1010F00002B440F2000340F2000240F20001FFF7A8
:1011000095FC01B0044A05490A600020DDF800E0C2
:1011100001B07047101B00004D0900006000002066
:1011200081B0CDF800E0A9E0012905D140F220010D
:101130006548FFF7C7FC04E040F220016248FFF772
:1011400089FCBBE0012905D140F208015F48FFF7A7
:10115000B9FC04E040F208015C48FFF77BFCADE01D
:10116000012905D144F200015948FFF7ABFC04E026
:1011700044F200015648FFF76DFC9FE0012905D1BC
:1011800040F200415148FFF79DFC04E040F200416D
:101190004E48FFF75FFC91E0012905D140F60001C0
:1011A0004A48FFF78FFC04E040F600014748FFF78C
:1011B00051FC83E0012905D141F200014348FFF7CA
:1011C00081FC04E041F200014048FFF743FC75E078
:1011D000012905D141F200013D48FFF773FC04E00D
:1011E00041F200013A48FFF735FC67E0012905D1DB
:1011F00040F600013648FFF765FC04E040F60001C8
:101200003348FFF727FC59E0012905D140F240019E
:101210002F48FFF757FC04E040F240012C48FFF74D
:1012200019FC4BE0012905D140F220012848FFF7C5
:1012300049FC04E040F220012548FFF70BFC3DE0AB
:10124000012905D140F240012248FFF73BFC04E0B0
:1012500040F240011F48FFF7FDFB2FE0012905D1B7
:1012600040F280011B48FFF72DFC04E040F28001B2
:101270001848FFF7EFFB21E0012020E000283FF4B1
:1012800053AF01283FF45EAF02283FF469AF032853
:101290003FF474AF04283FF47FAF05283FF48AAFD2
:1012A00006283FF495AF0728A0D00828ACD009281D
:1012B000B8D00A28C4D00B28D0D0DDE70020DDF854
:1012C00000E001B0704700BF00080140001001407D
:1012D00000140140000C014081B0CDF800E0094944
:1012E00002B440F2000340F2000240F20001FFF7B6
:1012F00005FB01B0044A05490A600020DDF800E062
:1013000001B070477C1B0000F50900006000002060
:1013100081B0CDF800E0094902B440F2000340F288
:10132000000240F20001FFF7FDFA01B0044A05494E
:101330000A600020DDF800E001B07047E81B000003
:10134000690900006000002081B00249086001B016
:10135000704700BF8001214281B00249086001B09E
:10136000704700BFB001224281B00249086001B05D
:10137000704700BFA481224281B00249086001B0D9
:10138000704700BFA881224281B00249086001B0C5
:10139000704700BFAC01224281B00249086001B031
:1013A000704700BF8801224281B00249086001B045
:1013B000704700BF9001214281B00249086001B02E
:1013C000704700BFA801224281B00249086001B005
:1013D000704700BFB481224283B0CDF800E0029094
:1013E00000218DF8041000218DF805108DF80610ED
:1013F0000120464C2468A04701A908460321FFF7B5
:1014000051FC0020414C2468A04701AB1978C8B2B8
:10141000020292B2591C097842EA01011FFA81F8CE
:101420003B490978102920D14FEA980189B288B246
:10143000FFF708FD374AFFF79BFCFFF7DFFC80B2A0
:101440003549088001AA511C097801F00301C9B28D
:101450008B00911C097801F0C001C9B28A09D2B28F
:10146000D9B241EA0200C0B247E0294909783029DF
:1014700014D14FEA181189B288B2FFF7E3FC274A6A
:10148000FFF776FCFFF7BAFC80B22349088001A978
:10149000491C097801F00F00C0B22EE01C49097800
:1014A000302916D14FEA981189B288B2FFF7CAFCE9
:1014B0001B4AFFF75DFCFFF7A1FC80B216490880CC
:1014C00001A9491C09788808C0B200F00F00C0B219
:1014D00013E01FFA88F0FFF7B5FC124AFFF748FC4B
:1014E000FFF78CFC80B20C49088001A9891C09789F
:1014F0000809C0B200F00F00C0B207490A8802997B
:101500000A80DDF800E003B0704700BF64000020EF
:101510005B0000206EFAB33C5E000020ACFFB33DE0
:10152000ACFFB33EB200B43B81B0CDF800E00E4654
:10153000002183B2002805DA0121404280B280B246
:101540008FB201E098B28FB23146FFF77BFB0621E4
:101550003446B8B2002908D963184A1E92B2A218BC
:1015600012781A70491E89B2F4E72022227070B1F5
:10157000002081B2204642181278202A02D1491C4C
:1015800089B2F8E74A1E92B283182D221A70DDF84C
:1015900000E001B07047FFFF81B0CDF800E05FFAD6
:1015A00081F95FFA82FA0FE05FFA8AF15FFA89F057
:1015B000FFF77EFC0DE05FFA8AF15FFA89F0FFF732
:1015C000AFFD06E0012004E00028EDD00128F2D0B4
:1015D000F8E7DDF800E001B07047FFFF81B0CDF81B
:1015E00000E08B4609E05846FFF750FD0AE05846F8
:1015F000FFF73AFD06E0012004E00028F3D00128BF
:10160000F5D0F8E7DDF800E001B0704782B0CDF822
:1016100000E001AB40F040021A705A1C117000202B
:10162000074C2468A04701AA02211046FFF774FB6B
:101630000120034C2468A047DDF800E002B07047A9
:101640006400002083B0CDF800E0024610460D2271
:101650008DF808200A228DF809201FE0FFF718FCFA
:1016600023E002782AB10190FFF712FC0198401C98
:10167000F7E71AE002782AB10190FFF709FC019818
:10168000401CF7E702AA1046FFF702FC0DF1090221
:101690001046FFF7FDFB08E0062007E00029DDD03B
:1016A0000129DED00229E5D0F6E70020DDF800E0D0
:1016B00003B0704781B0CDF800E003460846FFF75D
:1016C00013FB1846FFF71EFB0120034C2468A047BC
:1016D000DDF800E001B070476400002081B0CDF873
:1016E00000E011E00846FFF7FFFC16E00846FFF7B0
:1016F0000FFE12E00846FFF7EFFD0EE00846FFF789
:10170000D7FC0AE0012008E00028EBD00128EDD04A
:101710002028EFD03028F1D0F4E7DDF800E001B068
:101720007047FFFF82B0CDF800E001A9802008706B
:101730000020074C2468A04701A80121FFF7ECFA1C
:101740000120034C2468A047DDF800E002B0704798
:101750006400002081B0CDF800E0154A117040EA25
:101760000102D2B242F00602D1B20620FFF74EFFCC
:10177000AB211020FFF74AFFA1211120FFF746FF00
:10178000A2211220FFF742FFA3211320FFF73EFF03
:10179000A4211420FFF73AFFA5211B20FFF736FFF5
:1017A000AA210020FFF732FFDDF800E001B070470A
:1017B0005B00002081B01CF8019B0BF8019BBBEB88
:1017C0000A0FF8D101B0704781B01548006840F0A9
:1017D0000101134801601349134801601048016872
:1017E000124801400E4801600D4801686FF48020E6
:1017F00001400B4801600C4801686FF4FE00014095
:1018000009480160064801686FF0A0500140044893
:1018100001604FF000010648016001B0704700BF51
:10182000001002400000FFF004100240FFFFF6FE2F
:101830002C10024081B04FF000094FF0000CBDEBBE
:101840000A0F04DCBDEB0B0F01DBD446EA464BF874
:10185000049BBBEB0A0FFAD1BCEB0A0F05DDE24695
:10186000D9F800B00BF1040BF1E701B07047FFFFAE
:1018700081B0CDF800E01148FFF7AEFD0F480088B9
:101880000F49FFF751FE0F480121FFF7DBFE012151
:101890000B48FFF7D7FE0C480221FFF7D3FE49F6AD
:1018A000FF67C0F2240700BF00BF7F1EFDD100BF4D
:1018B00000BF00BFDDF800E001B070475C00002011
:1018C0002E0000204C0000205600002081B0CDF8F2
:1018D00000E015491548FFF7EDFE802040F00000BC
:1018E000C0B240F01000C0B240F00700C1B2042006
:1018F000FFF78CFE702040F00900C1B20520FFF711
:1019000085FE02210A20FFF781FE10218020FFF7CB
:1019100021FF07480221FFF795FEFFF703FFDDF8DF
:1019200000E001B0704700BF8C1D0000C01C00002B
:1019300016000020FFFFFFFF81B0CDF800E000227D
:1019400002210020FFF728FE0E4801460020FFF785
:1019500045FE4FF4E1312020FFF7C0FE0A48022186
:10196000FFF770FE44F67F77C0F2120700BF00BF9A
:101970007F1EFDD100BF00BF00BFDDF800E001B059
:10198000704700BF941D00000000002081B0024994
:101990000248016001B0704740190100700000204A
:1019A00081B0FEE701B0704781B000F00FF800F0A1
:1019B00035FAFFF7EBFF00F0F1F9FFF7BDFFFFF796
:1019C00085FFFFF755FFFCE7FEE7FFFF81B0CDF88D
:1019D00000E0464A464B474C47494BF6803081422F
:1019E00006D94648006840F002014448016011E011
:1019F00045F6C050814206D94048006840F00101D8
:101A00003E48016006E03D4801686FF00700014074
:101A10003A480160FFF7D8FE39480360394804604E
:101A2000394802EA00013948016002F0010040B182
:101A300019463648006800F00200002800D1F8E797
:101A400000E0194602F4803040B10B462F48006890
:101A500000F40030002800D1F8E700E00B4602F067
:101A6000805068B12948006840F0805127480160E3
:101A70002648006800F00050002800D1F8E7FFE792
:101A800002F0806078B12148006840F080611F4812
:101A9000016011461A461D48006800F000600028E9
:101AA00000D1F8E701E011461A4601F0807070B1EC
:101AB0001648006840F080711448016011461348D0
:101AC000006800F0007000B9F9E70A46FFE70C482B
:101AD000006800F00C01900000F00C00814200D082
:101AE000F5E7DDF800E001B0704700BF81000105B7
:101AF00002841D004406010040190100002002403C
:101B0000041002402C100240FFFF0F0000100240A2
:101B10003800000039000000FFFFFFFF0000000058
:101B200000000000000000000000000000000000B5
:101B300000000000000000000000000000000000A5
:101B4000000000001808000018000000000000005D
:101B50000000000000000000000000000000000085
:101B60000000000000000000000000000000000075
:101B70000000000000000000300014080900000010
:101B80000A000000FFFFFFFF00000000000000004F
:101B90000000000000000000000000000000000045
:101BA0000000000000000000000000000000000035
:101BB00018080000180000000000000000000000ED
:101BC0000000000000000000000000000000000015
:101BD0000000000000000000000000000000000005
:101BE0000000000004000000350000003600000086
:101BF000FFFFFFFF000000000000000000000000E9
:101C000000000000000000000000000000000000D4
:101C100000000000000000000000000018080000A4
:101C2000180000000000000000000000000000009C
:101C300000000000000000000000000000000000A4
:101C40000000000000000000000000000000000094
:101C5000080000082A0000002B0000002C000000F3
:101C6000FFFFFFFF00000000000000000000000078
:101C70000000000000000000000000000000000064
:101C80000000000000000000180800001808000014
:101C90001808000000000000000000000000000024
:101CA0000000000000000000000000000000000034
:101CB00000000000000000000000000000112008EB
:101CC000A913000099130000C9130000B913000004
:101CD0008913000059130000491300007913000014
:101CE00069130000E50B0000F50B0000C50B0000B8
:101CF000FFFFFFFFFFFFFFFFFFFFFFFFFFFFFFFFF4
:101D0000FFFFFFFFFFFFFFFFFFFFFFFFFFFFFFFFE3
:101D1000FFFFFFFFFFFFFFFFFFFFFFFFFFFFFFFFD3
:101D2000202D2D2D2053797374656D20696E697493
:101D3000202D2D2D2000202D2D2D20537461727407
:101D4000206D6561737572656D656E7420000000AD
:101D50000000000000000000000000000000000083
:101D600000000000000000000000000020416E673D
:101D70006C65203A200020646567000000000001C7
:101D80000203040102030406070809FF110A000008
:101D9000DD0A0000070000000703000000B5DFF8BF
:101DA00014B0DFF814A0DFF814C0FFF703FD00BD86
:101DB000704700BF000000205B000020201D0000D5
:101DC000FFFFFFFFFFFFFFFFFFFFFFFFFFFFFFFF23
:101DD000FFFFFFFFFFFFFFFFFFFFFFFFFFFFFFFF13
:101DE000FFFFFFFFFFFFFFFFFFFFFFFFFFFFFFFF03
:101DF000FFFFFFFFFFFFFFFFFFFFFFFFFFFFFFFFF3
:101E0000FFFFFFFFFFFFFFFFFFFFFFFFFFFFFFFFE2
:101E1000FFFFFFFFFFFFFFFFFFFFFFFF00B5DFF842
:101E200010B0DFF810A0FFF705FD00BD704700BF40
:101E3000000000208C000020FFFFFFFFFFFFFFFFDE
:00000001FF
