:1000000007EF0CF00000000000EF00F0000000001F
:0A0010000000000000000000F3D71C
:0E001C000001BAB102D08B9601D08B86120083
:0E002A000001BAB102D08B9801D08B88120071
:0E0038000001BAB102D08B9A01D08B8A12005F
:0E0046000001BAB102D08D9201D08D8212005D
:0E0054000001BAB102D08B9801D08B88120047
:0E0062000001BAB102D0899201D08982120049
:0E0070000001BAB102D0899801D0898812002F
:0E007E000001BAB102D08B9401D08B84120025
:0E008C000001BAB102D08B9801D08B8812000F
:0E009A000001BAB102D0899401D0898412000D
:0E00A8000001BAB102D08D9601D08D861200F3
:0E00B6000001BAB102D08B9601D08B861200E9
:0E00C4000001BAB102D08A9201D08A821200E5
:0E00D2000001BAB102D08B9E01D08B8E1200BD
:0E00E0000001BAB102D08B9C01D08B8C1200B3
:0E00EE000001BAB102D0899001D089801200C1
:0E00FC000001BAB102D08B9001D08B801200AF
:0E010A000001BAB102D08D9001D08D8012009C
:100118000F0121B302D00000FBD7BAC01CFF1200A8
:10012800BAC0C9FF016A0150000A05E1000EC7B054
:0C013800010E016EF8D7C9CF01F01200D3
:10014400BAC06AFF016A0150000A05E1000E68B0F6
:0C015400010E016EF8D76ACF01F0120016
:0E016000ACB202D00000FCD7BAC0ADFF120056
:0E016E000001BAB102D08B9601D08B86120030
:0E017C000001BAB102D08B9E01D08B8E120012
:0E018A000001BAB102D08B9C01D08B8C120008
:0E0198000001BAB102D08B9601D08B86120006
:0E01A6000001BAB102D08A9001D08A80120006
:0E01B4000001BAB102D08B9801D08B881200E6
:0E01C2000001BAB102D08B9A01D08B8A1200D4
:0E01D0000001BAB102D08B9201D08B821200D6
:0E01DE000001BAB102D08B9601D08B861200C0
:0E01EC000001BAB102D08F9201D08F821200B2
:0E01FA000001BAB102D08F9401D08F841200A0
:10020800BAC06AFF016A0150000A05E1000E68B031
:0C021800010E016EF8D76ACF00F0120052
:10022400BAC0C9FF016A0150000A05E1000EC7B057
:0C023400010E016EF8D7C9CF00F01200D7
:0E0240000001BAB102D08B9801D08B88120059
:0E024E000001BAB102D08B9801D08B8812004B
:0E025C000001BAB102D08D9401D08D84120041
:0E026A000001BAB102D08B9601D08B86120033
:0E0278000001BAB102D08A9401D08A8412002B
:0E0286000001BAB102D08F9001D08F8012001B
:0E0294000001BAB102D08B9A01D08B8A120001
:1002A2000B840BAE5CEF01F0010E036E026A016A71
:0A02B200006A0A360232FF0E120045
:0802BC000AAE029E000E1200C2
:1002C400F250026EF29E0500FF6A0150FE6E00506D
:0802D400FD6E02BEF28E120065
:0E02DC00026A016A006A086A036A000E1200D4
:1002EA000B800BAE81EF01F0026A0AAEFF0E026EBE
:0C02FA00016E006E0A360232FF0E120088
:100306000B820BAE8DEF01F003680268016800688E
:080316000A360232FF0E12004C
:10031E00600E00018B6F010E8C6FBA0E8D6F000E8A
:10032E008E6FFF0E936FFF0E946F000E956F000E83
:10033E00966FFF0E976FFF0E986F000E996F000E5F
:10034E009A6FFF0E9B6FFF0E9C6F000E9D6F000E3F
:10035E009E6FAC8A900EAB6E948E949C9EAA03D028
:08036E00AECF00F0FBD7120036
:10037600240E0001876F020E886FBA0E896F000E79
:100386008A6F280E8F6F010E906FBA0E916F000E56
:10039600926F949AB051040A02E1948601D0949621
:1003A6009488C66AC79CC79EB051C612B251C6127F
:1003B600B151C712B25305E0B351000AD8B4C78C85
:0C03C60003D0B353D8A4C78CC68A120021
:1003D200180E00018B6F010E8C6FBA0E8D6F000E1E
:1003E2008E6FFF0E936FFF0E946F000E956F000ECF
:1003F200966FFF0E976FFF0E986F000E996F000EAB
:100402009A6FFF0E9B6FFF0E9C6F000E9D6F000E8A
:100412009E6F0F01218B900E226F98849892A4AA4E
:0A04220003D01DCF00F0FBD712003D
:10042C00086A096A100E0C6E01340836093604503D
:10043C00085E0550D8A0053C095ED8B007D0045022
:10044C0008260550D8B0053C0926D8900036013650
:06045C000C2EEAD712008D
:10046200B0C0B4F0B1C0B5F0B2C000F0B3C001F09A
:10047200010E0001B25F000EB35B0050011013E0E9
:100482007AC0E1FF7BC0E2FFB4C0E9FFB5C0EAFF7A
:10049200EECFE6FF78C000F079C001F012DF000174
:0804A200B44BB52BE1D71200A9
:1004AA00B0C0B6F0B1C0B7F0B2C0B8F0B3C0B9F0DE
:1004BA00B4C000F0B5C001F0010E0001B45F000E37
:1004CA00B55B005001101BE080C0E1FF81C0E2FF74
:1004DA00B6C0E9FFB7C0EAFFEECFE6FF7EC000F084
:1004EA007FC001F0EADEB8C0E1FFB9C0E2FF00C098
:1004FA00E6FF0001B84BB92BB64BB72BD9D7120080
:10050A000C6A0E6A0250D8A49EEF02F001C002F0F3
:10051A0000C001F0006A0E860250D8A49EEF02F0D5
:10052A0001C002F0016A0E960E880250D8B4B0EFEC
:10053A0002F00E50035ED8A4D8A0B5EF02F0D8900E
:10054A0002BEBAEF02F0003601360236032EA5EFDC
:10055A0002F0B5EF02F0010E0C6EBBDEBDEF02F049
:10056A00020E0C6E99DEBDEF02F0040E0C6EA1DED7
:02057A0012006D
:10057C0021D0CF0EAF6EAC94CCDE6BD0670EAF6ECD
:10058C00AC94C7DE66D0CF0EAF6EAC84C2DE61D049
:10059C00670EAF6EAC84BDDE5CD0440EAF6EAC8427
:1005AC00B8DE57D0220EAF6EAC84B3DE52D0060E3E
:1005BC00006E58D00001000E006EAC1908E100501E
:1005CC00AB1905E1120EAA1902E1A951C00AD1E03A
:1005DC00000E006EAC1908E10050AB1905E1250EB8
:1005EC00AA1902E1A951800AC9E0000E006EAC19EB
:1005FC0008E10050AB1905E14B0EAA1902E1A95113
:10060C00000AC1E0000E006EAC1908E10050AB19F5
:10061C0005E1960EAA1902E1A951000AB9E0000EF3
:10062C00006EAC1908E10050AB1905E1E10EAA19F6
:10063C0002E1A951000AB1E0AC51000A08E1AB514A
:10064C00010A05E1AA51C20A02E1A951000AAAE075
:10065C00AED7600E836F010E846FBA0E856F000EDD
:06066C00866F006A120017
:10067200800E0001A911AA6F74C0E1FF75C0E2FFEC
:10068200E66A72C000F073C001F01BDEAA0E000120
:10069200B06F000EB16FAB0EB26F000EB36F020EF1
:1006A200B46F000EB56F00DF74C0E1FF75C0E2FFEA
:1006B200010EE66E72C000F073C001F002DEABC044
:0406C20000F0120032
:1006C60021D0CF0EAF6EAC9427DE6BD0670EAF6E27
:1006D600AC9422DE66D0CF0EAF6EAC841DDE61D048
:1006E600670EAF6EAC8418DE5CD0440EAF6EAC8481
:1006F60013DE57D0220EAF6EAC840EDE52D0060E3D
:10070600006E58D00001000E006EAC1908E10050D2
:10071600AB1905E1120EAA1902E1A951C00AD1E0EE
:10072600000E006EAC1908E10050AB1905E1250E6C
:10073600AA1902E1A951800AC9E0000E006EAC199F
:1007460008E10050AB1905E14B0EAA1902E1A951C7
:10075600000AC1E0000E006EAC1908E10050AB19AA
:1007660005E1960EAA1902E1A951000AB9E0000EA8
:10077600006EAC1908E10050AB1905E1E10EAA19AB
:1007860002E1A951000AB1E0AC51000A08E1AB51FF
:10079600010A05E1AA51C20A02E1A951000AAAE02A
:1007A600AED7600E836F010E846FBA0E856F000E92
:0607B600866F006A1200CC
:1007BC0021D0CF0EAF6EAC94ACDD6BD0670EAF6EAC
:1007CC00AC94A7DD66D0CF0EAF6EAC84A2DD61D049
:1007DC00670EAF6EAC849DDD5CD0440EAF6EAC8406
:1007EC0098DD57D0220EAF6EAC8493DD52D0060E3E
:1007FC00006E58D00001000E006EAC1908E10050DC
:10080C00AB1905E1120EAA1902E1A951C00AD1E0F7
:10081C00000E006EAC1908E10050AB1905E1250E75
:10082C00AA1902E1A951800AC9E0000E006EAC19A8
:10083C0008E10050AB1905E14B0EAA1902E1A951D0
:10084C00000AC1E0000E006EAC1908E10050AB19B3
:10085C0005E1960EAA1902E1A951000AB9E0000EB1
:10086C00006EAC1908E10050AB1905E1E10EAA19B4
:10087C0002E1A951000AB1E0AC51000A08E1AB5108
:10088C00010A05E1AA51C20A02E1A951000AAAE033
:10089C00AED7600E836F010E846FBA0E856F000E9B
:0608AC00866F006A1200D5
:1008B200086A096A000E07620364DEEF04F0025060
:1008C20006180A6E075003267E0ED8A06FEF04F0BA
:1008D200035ED8B0E2EF04F073EF04F0035ED8A039
:1008E200E6EF04F0028E068E02C00EF001C00BF09D
:1008F20000C00DF000500402F4CF0CF001500502CC
:10090200F4CF00F0F3CF08F00402F3500C26F450B9
:100912000822000E00220D500502F3500C26F4505E
:100922000822000E002202500402F3500826F4505E
:10093200002202500502016A000E0122F350002635
:10094200F45001220D500602F3500826F450002202
:10095200026A000E012202220B500602F350002608
:10096200F4500122000E02220E500602F35001261C
:10097200F450022202BEC6EF04F0083600360136F9
:1009820002360306D8B4E6EF04F0D9EF04F0D880BB
:10099200800E08640030000E002201220222D8A03C
:1009A200D9EF04F0023201320032034AE2EF04F0DE
:1009B2000AAE029E000EE8EF04F0010E8EDCE8EFB4
:1009C20004F0020E9FDCE8EF04F0040E69DC120072
:1009D20038D00F0120870D0E1F6F040E1E6F218568
:1009E200F7DC7ED00F012087060E1F6F820E1E6F6E
:1009F2002185EEDC75D00F012087030E1F6F400E9C
:100A02001E6F2185E5DC6CD00F012087010E1F6F60
:100A1200A00E1E6F2185DCDC63D00F012087010E42
:100A22001F6F150E1E6F2185D3DC5AD00F01208750
:100A32001F6B8A0E1E6F2185CBDC52D0060E006E14
:100A420059D0000E006E0001AC1908E10050AB193C
:100A520005E1120EAA1902E1A951C00ABAE0000E7C
:100A6200006EAC1908E10050AB1905E1250EAA1978
:100A720002E1A951800AB6E0000E006EAC1908E14D
:100A82000050AB1905E14B0EAA1902E1A951000A67
:100A9200B2E0000E006EAC1908E10050AB1905E19E
:100AA200960EAA1902E1A951000AAEE0000E006EEC
:100AB200AC1908E10050AB1905E1E10EAA1902E1F7
:100AC200A951000AAAE0AC51000A08E1AB51010A9F
:100AD20005E1AA51C20A02E1A951000AA7E0AED774
:100AE2000001180E836F010E846FBA0E856F000E1F
:060AF200866F006A12008D
:100AF800A9C0F6FFAAC0F7FFABC0F8FF0900F5CF01
:100B0800B0F0040E0001A925F66E000EAA21F76EBA
:100B1800000EAB21F86E0900F5CFB1F0080EA9253B
:100B2800F66E000EAA21F76E000EAB21F86E0900D2
:100B3800F5CFB2F00C0EA925F66E000EAA21F76EBD
:100B4800000EAB21F86E0900F5CFB3F010DC000EF3
:040B5800006E120019
:100B5C005DD00001AAB102D0929401D092840F0111
:100B6C0025957AD00001AAB102D0969601D096862E
:100B7C0073D00001AAB102D0969401D096846CD0A7
:100B8C000001AAB102D0949601D0948665D00001E0
:100B9C00AAB102D0949801D094885ED00001AAB179
:100BAC0002D0949A01D0948A57D00001AAB102D0F5
:100BBC00989001D0988050D00001AAB102D09394A3
:100BCC0001D0938449D00001AAB102D0989401D0ED
:100BDC0098840F01239540D00001AAB102D09892BD
:100BEC0001D098820F01239337D00001AAB102D013
:100BFC00949601D0948630D00001AAB102D094987A
:100C0C0001D0948829D0010E006E28D00001A95182
:100C1C00000A9FE0A951010AA5E0A951020AA9E026
:100C2C00A951030AADE0A951040AB1E0A951050A82
:100C3C00B5E0A951060AB9E0A951070ABDE0A951CE
:100C4C00080AC1E0A951090AC7E0A9510A0ACDE076
:0E0C5C00A9510B0AD1E0D7D7000E006E12008E
:100C6A0059D00001AAB102D0929201D092820F010A
:100C7A00259376D00001AAB102D0929801D0928829
:100C8A006FD00001AAB102D0969201D0968268D0A4
:100C9A000001AAB102D0949601D0948661D00001D5
:100CAA00AAB102D0949801D094885AD00001AAB16E
:100CBA0002D0949A01D0948A53D00001AAB102D0EA
:100CCA00949401D094844CD00001AAB102D093929A
:100CDA0001D0938245D00001AAB102D0949E01D0DE
:100CEA00948E3ED00001AAB102D0949C01D0948C7B
:100CFA0037D00001AAB102D0949601D0948630D0A0
:100D0A000001AAB102D0949801D0948829D0010E8A
:100D1A00006E28D00001A951000AA3E0A951010AD6
:100D2A00A9E0A951020AADE0A951030AB1E0A9510B
:100D3A00040AB5E0A951050AB9E0A951060ABDE0BD
:100D4A00A951070AC1E0A951080AC5E0A951090A2F
:100D5A00C9E0A9510A0ACDE0A9510B0AD1E0D7D7B7
:060D6A00000E006E1200F5
:100D700059D00001AAB102D0929001D092800F0107
:100D8000259176D00001AAB102D0949001D0948030
:100D90006FD00001AAB102D0969001D0968068D0A1
:100DA0000001AAB102D0949601D0948661D00001CE
:100DB000AAB102D0949801D094885AD00001AAB167
:100DC00002D0949A01D0948A53D00001AAB102D0E3
:100DD000949201D094824CD00001AAB102D0939099
:100DE00001D0938045D00001AAB102D0949E01D0D9
:100DF000948E3ED00001AAB102D0949C01D0948C74
:100E000037D00001AAB102D0949601D0948630D098
:100E10000001AAB102D0949801D0948829D0010E83
:100E2000006E28D00001A951000AA3E0A951010ACF
:100E3000A9E0A951020AADE0A951030AB1E0A95104
:100E4000040AB5E0A951050AB9E0A951060ABDE0B6
:100E5000A951070AC1E0A951080AC5E0A951090A28
:100E6000C9E0A9510A0ACDE0A9510B0AD1E0D7D7B0
:060E7000000E006E1200EE
:100E7600A9C0F6FFAAC0F7FFABC0F8FF0900F5CF7F
:100E8600B0F0040E0001A925F66E000EAA21F76E39
:100E9600000EAB21F86E0900F5CFB1F0080EA925BA
:100EA600F66E000EAA21F76E000EAB21F86E090051
:100EB600F5CFB2F00C0EA925F66E000EAA21F76E3C
:100EC600000EAB21F86E0900F5CFB3F0BBEC01F0D4
:060ED600000E006E120088
:100EDC00090E0B6E1E0E0C6EE40E0D6E0D2EFED753
:0C0EEC000C2EFCD70B2EFAD700001200D1
:100EF800A9C0F6FFAAC0F7FFABC0F8FF0900F5CFFD
:100F0800B0F0040E0001A925F66E000EAA21F76EB6
:100F1800000EAB21F86E0900F5CFB1F0080EA92537
:100F2800F66E000EAA21F76E000EAB21F86E0900CE
:100F3800F5CFB2F00C0EA925F66E000EAA21F76EB9
:100F4800000EAB21F86E0900F5CFB3F0BBEC01F051
:060F5800000E006E120005
:100F5E00080E0001A925F66E000EAA21F76E000EEE
:100F6E00AB21F86E0900F5CF72F00900F5CF73F0E2
:0E0F7E000900F5CF74F00900F5CF75F01200F0
:100F8C00A9C0F6FFAAC0F7FFABC0F8FF0900F5CF68
:100F9C0078F00900F5CF79F00900F5CF7AF0090067
:100FAC00F5CF7BF0040E0001A925F66E000EAA21E8
:100FBC00F76E000EAB21F86E0900F5CF7EF009003C
:100FCC00F5CF7FF00900F5CF80F00900F5CF81F067
:020FDC00120001
:100FDE000001AD6B050EAD5D0AE2AD51AB25E16EC4
:100FEE00000EAC21E26E200EE66EAD2BF3D7AD51A6
:100FFE00AB25E16E000EAC21E26EE66AAD07AD5197
:10100E00AB25AE6F000EAC21AF6F0A0E046E000E54
:10101E00056EA9C000F0AAC001F016EC02F008C0DF
:10102E0000F009C001F0300E0026AEC0E1FFAFC0E7
:10103E00E2FF00C0E6FF0A0E046E000E056EA9C0A8
:10104E0000F0AAC001F016EC02F000C0A9F001C039
:10105E00AAF0000E011802E1000E001801E102D004
:06106E00AD07CDD7120012
:10107400400E0001A911AB6FAAC0ACF074C0E1FF2F
:1010840075C0E2FFE66A72C000F073C001F062EC62
:1010940001F0AB0E0001B06F000EB16F020EB26F23
:1010A400000EB36F31EC02F074C0E1FF75C0E2FFD3
:1010B400010EE66E72C000F073C001F062EC01F044
:0210C400120018
:1010C60085C0E1FF86C0E2FFA9C0E9FFAAC0EAFF2A
:1010D600EECFE6FF83C000F084C001F062EC01F0C1
:0410E600006A12008A
:1010EA000B6A0C6A0A6A0350D8B4BFEF08F0028E82
:1010FA008E0E035E03BE87EF08F0D8B487EF08F0C0
:10110A00C3EF08F0036C080E035CD8A09EEF08F04A
:10111A00036E013602C001F0026A080E035CD8A011
:10112A009EEF08F00136016A0350D8A4D890A8EFC0
:10113A0008F00350D8B4A8EF08F0D8900232013270
:10114A00032EA2EF08F00BBC01A0B5EF08F0D8A05F
:10115A00B5EF08F0012AD8B4022A02BED2EF08F08D
:10116A000AAED8EF08F0021E011E012AD8B4022ADC
:10117A00D8EF08F0026A016AD8EF08F00B800BAECC
:10118A00DCEF08F0026A0AAEDCEF08F0FF0E026E2E
:10119A00016E0A360232DCEF08F0010E0C6E75ECB5
:1011AA0001F0DEEF08F0000E0C6EDEEF08F0FF0E25
:0C11BA000C6E0150006E0250016E12001D
:1011C6000050086E0150006E016A026A036A0B6ADB
:1011D6000C6A960E036E0A6A00C001F008C000F0A1
:0A11E600086A026A85EC02F01200AC
:1011F00015D0A0C0A9F0A1C0AAF0BADD1AD0A0C035
:10120000A9F0A1C0AAF031DD14D0A0C0A9F0A1C0FE
:10121000AAF0A4DC0ED0010E006E0BD000019F518D
:10122000000AE7E09F51010AEAE09F51020AEDE05F
:04123000F2D71200DF
:101234000001A56BA66B9FC0A7F0A0C0A8F0800E0C
:10124400A019006E800E005C02E1000E9F5D0BE2AF
:10125400010EA56F000EA66F9F510008A76FA0C0D6
:10126400A8F0000EA857A7C0A9F0A8C0AAF0A1C072
:10127400ABF0A2C0ACF0B1DE060EA36F000EA46FFB
:10128400000E006EA451005C02E1A351000819E2B3
:10129400A351A125E16EA451A221E26E010EA35D2A
:1012A400006E000EA459016E0050A125E96E015094
:1012B400A221EA6EEECFE6FF010EA35F000EA45B4F
:1012C400DFD7A1C0E1FFA2C0E2FF200EE66EA55168
:1012D400A6111AE0A36BA46BA351A125E96EA45136
:1012E400A221EA6EEE50200A03E1A34BA42BF4D70B
:1012F400010EA35F000EA45BA351A125E16EA451CE
:0A130400A221E26E2D0EE66E12002B
:10130E001CD0A0C0A9F0A1C0AAF0A2C0ABF0EDDD28
:10131E001FD0A0C0A9F0A1C0AAF0A2C0ABF0A4DD5E
:10132E0017D0A0C0A9F0A1C0AAF0A2C0ABF07CEC6F
:10133E0005F00ED0010E006E0BD000019F51000A79
:10134E00E0E09F51010AE5E09F51020AEAE0F2D780
:02135E0012007B
:10136000800E00019F6F74C0E1FF75C0E2FFE66A66
:1013700072C000F073C001F062EC01F09F0E00013A
:10138000B06F000EB16FA00EB26F000EB36F040EFF
:10139000B46F000EB56F55EC02F074C0E1FF75C07C
:1013A000E2FF010EE66E72C000F073C001F062EC65
:1013B00001F0A0C0A4F0000E0001A56FA4C0A5F02C
:1013C000A46BA151A413000EA5138251100A1FE1B2
:1013D000A4C000F0A5C001F001320032019E01322C
:1013E0000032019E00C0A4F001C0A5F0ECDE6E0E3C
:1013F000046EFA0E056E330E066E790E076E59EC0A
:1014000004F073DE00C076F001C077F061D0825145
:10141000300A25E1A4C000F0A5C001F0013200327D
:10142000019E01320032019E01320032019E0132E2
:101430000032019E00C0A4F001C0A5F0C4DEAC0ED5
:10144000046EFF0E056E330E066E7B0E076E59ECB2
:1014500004F04BDE00C076F001C077F039D0825145
:10146000300A22E1060E026EA4C000F0A5C001F011
:10147000025005E001320032019EFF0FFAD700C092
:10148000A4F001C0A5F09FDEAC0E046EFF0E056E49
:10149000330E066E7D0E076E59EC04F026DE00C09A
:1014A00076F001C077F014D0A4C000F0A5C001F020
:1014B0008ADEB20E046E000E056E340E066E770ED6
:1014C000076E59EC04F011DE00C076F001C077F031
:1014D00077517D1902E17C51761909E076C07CF0E4
:1014E00077C07DF076C000F077C001F002D0006ACE
:0414F000016A12007B
:1014F400A2C0A9F0A3C0AAF0A4C0ABF045DD9FC070
:10150400A9F0A0C0AAF0A1C0ABF027DD74C0E1FF30
:1015140075C0E2FF010EE66E72C000F073C001F008
:0615240062EC01F0120070
:10152A009FC0A2F0A0C0A3F00D0E0001A46F0A0E86
:10153A00A56F35D0A2C0A9F0A3C0AAF0BFDD3AD0EA
:10154A00A2C0E9FFA3C0EAFFEE5209E0A2C0A9F0D7
:10155A00A3C0AAF0B3DD0001A24BA32BF1D72AD076
:10156A00A2C0E9FFA3C0EAFFEE5209E0A2C0A9F0B7
:10157A00A3C0AAF0A3DD0001A24BA32BF1D700015F
:10158A00A40EA96F000EAA6F99DDA50E0001A96F1E
:10159A00000EAA6F93DD0ED0060E006E0CD000016D
:1015AA00A151000AC7E0A151010ACAE0A151020AE9
:0815BA00D7E0F2D7006A12002D
:1015C200A0C082F0060E0001A96FA0519F11AA6F60
:1015D200060EAA134EDD100E0001A96FAB0EAA6F04
:1015E20048DD110E0001A96FA10EAA6F42DD120E95
:1015F2000001A96FA20EAA6F3CDD130E0001A96FB4
:10160200A30EAA6F36DD140E0001A96FA40EAA6FF5
:1016120030DD1B0E0001A96FA50EAA6F2ADD0001A5
:10162200A96BAA0EAA6F25DD58DC0001A96B39EC63
:0E16320003F000C07CF0000E00017D6F12007E
:101640002FD0A0C0A9F0A1C0AAF0A2C0ABF0A3C047
:10165000ACF063EC03F032D0A0C0A9F0A1C0AAF0B6
:10166000A2C0ABF0A3C0ACF0BEEC02F027D0A0C08B
:10167000A9F0A1C0AAF0A2C0ABF0A3C0ACF0E9EC05
:1016800004F01CD0A0C0A9F0A1C0AAF0A2C0ABF089
:10169000A3C0ACF0DEEC03F011D0010E006E0ED052
:1016A00000019F51000ACDE09F51010AD5E09F51F2
:0E16B000020ADDE09F51100AE5E0EFD71200BC
:1016BE000900F5CFE6FF0006FBE10106F9E1120095
:1016CE0000019F6B020EA06FA16B8BDD00019F6B63
:1016DE00D70EA06F180EA16F000EA26F11DE100EA6
:1016EE009F6F000EA06FC20EA16F010EA26F000EB3
:1016FE00A36F9FDF420E00019F6F000EA06F020EC0
:10170E00A16F0CDF090E0B6E1E0E0C6EE40E0D6E2D
:10171E000D2EFED70C2EFCD70B2EFAD70000120082
:10172E0018DE00C070F001C071F0000E011802E169
:10173E00000E001820E070C09FF071C0A0F0150ED2
:10174E00A16F000EA26F6FDD330E9F6F000EA06FA4
:10175E00010EA16FE3DE150E00019F6F000EA06F4C
:10176E00010EA16FDBDE3D0E00019F6F000EA06F1C
:10177E00020EA16FD3DE110E0B6E3C0E0C6ECB0E55
:10178E000D6E0D2EFED70C2EFCD70B2EFAD7120097
:10179E001C0E00019F6F180EA06F000EA16FE70EBA
:1017AE00A26F180EA36F000EA46F9DDE040E000133
:1017BE00A96F800E006E000E0010AA6F100EAA13F5
:1017CE00070EAA1350DC050E0001A96F700E006EF5
:1017DE00090E0010AA6F47DC0A0E0001A96F020E57
:1017EE00AA6F41DC800E00019F6F100EA06FE2DE2B
:1017FE00580E9F6F000EA06F020EA16F8FDE1200AB
:0E180E0078EC0CF05DDFC4DF8BDFFED7FFD778
:1018F00010EE15F05B0E006E010E016E7C0EF66EA2
:0E190000180EF76E000EF86E5FEC0BF0120082
:10181C00EE00BA00FC00BA000A01BA006E01BA0070
:10182C00B401BA00C201BA00D001BA00A601BA00D4
:10183C007C01BA008A01BA009801BA005400BA00BF
:10184C00FFFFFFFFFFFFFFFFFFFFFFFFFFFFFFFF9C
:10185C00FFFFFFFFFFFFFFFFFFFFFFFFFFFFFFFF8C
:10186C00FFFFFFFFFFFFFFFFFFFFFFFFFFFFFFFF7C
:10187C00000000000000000000000000000000005C
:0E188C0000000000000000000000000000004E
:0A189A0020416E676C65203A2000C3
:0518A4002064656700EF
:1018A900202D2D2D2053797374656D20696E69740F
:0618B900202D2D2D200062
:1018BF00202D2D2D205374617274206D6561737509
:0818CF0072656D656E74200066
:1018D70002000000000000001000000001000000EE
:0818E7002801BA002402BA0036
:020000040030CA
:0E00000015137F7CF98B91FFFFC0FFE0FF40DE
:00000001FF
